:1000000052C200006DC200006BC2000069C2000055
:1000100067C2000065C2000063C2000061C2000048
:100020005FC200005DC200000C94951B0C947D1C07
:100030000C944B0B55C2000053C2000051C200008B
:100040004FC200004DC200004BC2000049C2000078
:1000500047C200000C94711B43C2000041C2000063
:100060003FC200003DC200003BC2000039C2000098
:1000700037C2000035C2000033C2000031C20000A8
:100080002FC200002DC200002BC2000029C20000B8
:1000900027C2000025C2000023C2000021C20000C8
:1000A0001FC200001DC200001BC200000501098024
:1000B000A101850319012AB700150126B700950192
:1000C00075108100C0050C0901A101850419012AE0
:1000D000A002150126A002950175108100C005013E
:1000E0000906A1018506050719E029E71500250184
:1000F0009508750181020507190029EF15002501F2
:1001000095F075018102050819012905950575010C
:100110009102950175039101C005010902A1010930
:1001200001A1000509190129081500250195087587
:100130000181020501093009311581257F9502757C
:1001400008810609381581257F9501750881060506
:100150000C0A38021581257F950175088106C0C0FB
:100160000660FF0961A1010962150026FF009520C4
:10017000750881020963150026FF00952075089116
:1001800002C005010906A101050719E029E71500CC
:100190002501950875018102950175088101050702
:1001A000190029FF150026FF009506750881000536
:1001B000081901290515002501950575019102957C
:1001C0000175039101C009027400040100A0FA093D
:1001D0000400000103010100092111010001224472
:1001E0000007058103080001090401000203000063
:1001F00000092111010001222200070583032000CC
:1002000001070504032000010904020001030102A3
:100210000009211101000122470007058203100097
:10022000010904030001030000000921110100017C
:10023000226D000705850320000112010002000065
:100240000008973274490001010203011A035800A3
:1002500033006F00670050002F006C0062007100D7
:100260003300450047000000160345007200670098
:100270006F0064006F007800200045005A00000005
:1002800028035A0053004100200054006500630019
:1002900068006E006F006C006F006700790020003E
:1002A0004C00610062007300000004030904350083
:1002B0002B002900E100E00000001E0014000400F3
:1002C0001D00E20022521F001A0016001B00E3006E
:1002D000E30020000800070006006F002C0021004A
:1002E000150009001900002F4152220017000A00D2
:1002F0000500000006082D00260200002F00000067
:1003000019082E0027020000300000004A002300D8
:100310001C000B00110000004D00240018000D000F
:10032000100050004B0025000C000E00360051005C
:100330002800260012000F00370052002A00270074
:100340001300330038004F004E002A003100340003
:10035000E5004C00000035002B002900E100E3001F
:1003600000001E00140004001D00E20022521F00C5
:100370001A0016001B00E000E00020000800070043
:1003800006006F002C002100150009001900002F45
:100390004052220017000A000500000006012D004F
:1003A000260200002F00000019012E002702000085
:1003B000300000004A0023001C000B001100000068
:1003C0004D00240018000D00100050004B002500C7
:1003D0000C000E00360051002800260012000F000D
:1003E000370052002A0027001300330038004F0066
:1003F0004E002A0031003400E5004C0000000100EE
:1004000001000100010001000000010001000100E5
:1004100001000100010001000100CF00D200010035
:1004200001000100CD00CE00D30001000100010059
:100430000100D000D1000100010001000100010015
:1004400001000000010001000100000001000000A7
:100450000100A800A9000000AA000000BC000100E3
:100460000100010001000000BB00430040003D000E
:100470003A000100AC00440041003E003B00010096
:10048000AE00450042003F003C00010001000100B9
:100490000100010001000100AB00010001000100AA
:1004A00001000100000011241FBECFEFDAE0DEBF23
:1004B000CDBF11E0A0E0B1E0E8E0FFE302C00590AD
:1004C0000D92A23CB107D9F722E0A2ECB1E001C045
:1004D0001D92AA3EB207E1F70E945E170C942C1FF2
:1004E0008FCDABEBB1E041E050E0F8948D91E82F77
:1004F000E295EF70F0E021A18F70BA0102C0660FA3
:10050000771F8A95E2F7CB01962F9095922391A3BE
:1005100092A1892B82A3789471E0A13CB70729F7B7
:10052000089590E0FC01E355FE4F2081211119C090
:10053000F89481569E4FFC012081E22FE295EF70E6
:10054000F0E031A12F7081E090E001C0880F2A9582
:10055000EAF7982F9095932391A392A1892B82A3D8
:10056000789408950F931F93CF9304EB11E0C7E0A5
:10057000F80181918F01811102C08C2FD2DFCF5FF2
:10058000CE30B1F7CF911F910F910895259A2D9AF2
:100590000895269A2E9A0895279A2F9A08952598B5
:1005A0002D982D98089526982E982E98089527987E
:1005B0002F982F980895982F92959F7024E091116D
:1005C00002C020E0982F892F86958695811511F01D
:1005D0002E5F982F892F8695820F08955E98DFDF12
:1005E000E2DFE5DF8091D702E6DF813009F4CEDF7C
:1005F0008091D502811511F082FDCBCF0895292F6E
:100600009E3090F5863080F590E036E0239F800D97
:10061000911D1124282F277041E001C0440F2A9515
:10062000EAF723E0969587952A95E1F7FC01EE0F0E
:10063000FF1FE80FF91FE45AFD4F20E030E070E0A3
:100640005191DF01CB01022E02C0969587950A9445
:10065000E2F7817081958527842385278E932F5F0C
:100660003F4F2330310561F70895292F9E3078F5EB
:10067000863068F590E036E0239F800D911D1124AF
:10068000682F677023E0969587952A95E1F7FC011E
:10069000EE0FFF1FE80FF91FE45AFD4F40E050E056
:1006A00080E0219130E0062E02C0369527950A940D
:1006B000E2F721703327042E01C0220F0A94EAF7D3
:1006C000822B4F5F5F4F4330510559F7089580E00B
:1006D00008958091950290919402981301C0089515
:1006E0008F5F8770FACF80918D0290919302892B52
:1006F00050918E02511591F090910E01913021F49C
:100700009091910297FD0BC096E026EC31E040E01D
:10071000915048F4411110928E02852B08959EE16C
:100720002EEC31E0F4CFF90161919F01611581F365
:100730004F5FEECF982F909580918D028923809303
:100740008D0208957E30B8F46630A8F48330B0F49A
:10075000E62FF0E096E0799FE00DF11D112494E57D
:10076000899FE00DF11D1124EE0FFF1FE255FD4F93
:1007700085919591089580E090E0089581E0FCCF07
:10078000803E9105D9F1C8F48133910509F482C006
:1007900048F48932910509F472C08A32910509F44E
:1007A00080C0089589339105E9F082389105D1F030
:1007B0008533910509F45EC00895843E9105D9F111
:1007C00048F4823E910539F1833E910549F181EE6D
:1007D00090E00895863E9105C9F1873E910509F4A0
:1007E0003EC00895209191022370211164C0209190
:1007F000920223FF14C089E290E0089520919102B3
:1008000020FD45C03091920230FF09C024FD24C074
:1008100083EE90E008952091910222FDF7CF089594
:100820002091910222FD44C03091920230FD43C0DC
:1008300024FFF5CF11C02091920221FFF0CF8091CB
:10084000910284FD09C087EE90E008952091910205
:1008500023FFE5CF24FFF7CF80E090E008952091BB
:10086000910223FD2BC03091920231FFE1CF84EE43
:1008700090E008952091910225FFD1CFBCCF209127
:10088000910225FD1EC02091920223FFC8CF89E36B
:1008900090E008952091910226FFC1CF8AE290E076
:1008A00008952091910226FFBACF81E390E0089548
:1008B00082EE90E0089580EE90E0089586EE90E05C
:1008C000089585E390E008959091910292FF10C001
:1008D00041E0282F2471243009F040E031E0282F36
:1008E0002871283009F030E0431711F02CE08227FE
:1008F00093FF10C041E0282F2471243109F040E01B
:1009000031E0282F2871283109F030E0431711F029
:100910002CE082273091920230FF10C051E0282F46
:100920002171213009F050E041E0282F2871283052
:1009300009F040E0541711F029E0822731FF10C080
:1009400041E0282F2171213109F040E031E0282FCA
:100950002871283109F030E0431711F029E082278F
:1009600094FD877E08951F93CF93DF9309DFEC01F9
:10097000811522E5920708F052C0811540E59407E1
:1009800008F0CDC0803E910520F58D3C910508F022
:10099000A1C0883A910570F4853A910508F097C096
:1009A00081309105B9F10497813A910598F1C0E041
:1009B000D0E030C0885A91094B97C8F7C85AD0E0A8
:1009C000CC0FDD1FCD5CDE4F0990D881C02DD464E3
:1009D00021C0811550E49507B0F4C11580E2D80715
:1009E00008F0B2C0C83ED105A8F0CE019A95811595
:1009F0009F41E8F68D2F68DF182FCE019927C0DEC2
:100A0000EC01D12B07C09927BBDECC27DF70C82BA8
:100A1000D92BD06ACE01DF91CF911F9108958038F4
:100A200042E59407C8F5803652E5950708F05BC0AB
:100A3000C03482E5D807D0F4C03292E5D90708F077
:100A40004BC08C2F8695869520E2829FC001112491
:100A5000C37021E030E0A90102C0440F551FCA95C0
:100A6000E2F7EA01C82BD92BDD68D4CF8C2F86950D
:100A70008695877050E2859FC0011124C37021E0E4
:100A800030E0A90102C0440F551FCA95E2F7EA0100
:100A9000C82BD92BDC68BECF803C52E5950758F4B3
:100AA0008F71C03AD245A0F590E0982F8827EC01CD
:100AB000C46FD06AAFCF805C9245809708F077CF43
:100AC000DC2FCC27CC27DF71C06FD06AA3CFA497CF
:100AD000D064A0CFD0659ECFCF71D0E0DC2FCC27E3
:100AE000C16FD06A97CF86958695877020E2829FE6
:100AF000C0011124C37021E030E0A90102C0440FFD
:100B0000551FCA95E2F7EA01C82BD92BDA6882CFC4
:100B1000DBDEC82FD0E0DC2FCC27D0627BCF8F71FB
:100B2000D3DE93E0CC0FDD1F9A95E1F7CC27DF7081
:100B3000282F30E084FF04C050E1859F90011124EC
:100B4000C22BD32BD06966CF8D2F8F71BDDE182FAE
:100B5000CE01992715DEEC01D12BDFCFA0E0B0E06C
:100B6000E4EBF5E00C949A1E7C010091D502809193
:100B7000D702082BC7E0D0E010E0C8010C2E02C05D
:100B8000959587950A94E2F780FD09C02197A8F70B
:100B9000D12C8D2DCDB7DEB7E7E00C94B61EDC2E40
:100BA000B7018C2FCFDDDFDE019781F3F2CF0F93FA
:100BB0001F93CF93FC01858100811181811579F00C
:100BC000611569F0C801CADFC82F682FC80117DD99
:100BD000B8018C2FB7DDCF911F910F910895C801F7
:100BE00044DDC82FF5CFCF93DF93D82FC92FB6DFC1
:100BF0006D2F7C2FA7DDB7DEDF91CF910895FC012B
:100C00008481811599F080819181EDDF282F929563
:100C10009F70963099F060F4925F9F70923030F43C
:100C2000203FB1F038F481E0283E38F080E00895AC
:100C30009A5FF3CF81E0243FC9F7089591E0213F07
:100C400009F090E081E0283E08F080E0892B0895CB
:100C500081E0089580E00895282F35EB2303C0013B
:100C6000112497FF04C080589109892F0895805856
:100C70009F4FFBCF80917F0280FD17C081FD17C081
:100C800082FD19C080917E02811599F08C3398F411
:100C900028E3829FC00111246CE370E00E94C61E0D
:100CA0006115710551F0862F08956EE0FCCF6CE15F
:100CB000FACF68E0F8CF68E3F6CF81E0089580913D
:100CC0007F0280FD19C081FD15C082FD17C0809193
:100CD0007D02811589F08C3388F427E0829FC00162
:100CE00011246CE370E00E94C61E6115710541F08D
:100CF000862F089563E0FCCF61E0FACF67E0F8CF7C
:100D000081E00895E0915202F0915302309739F05A
:100D10000190F081E02D309711F00995089580E061
:100D20000895A3E0B0E0E7E9F6E00C949F1E9C0173
:100D3000809105029091060282179307B1F03093DB
:100D4000060220930502E0915202F091530230977F
:100D500061F00084F185E02D309739F083E08983DC
:100D60003B832A83CE01019609952396E2E00C94F9
:100D7000BB1EA3E0B0E0EFEBF6E00C949F1E9C01DD
:100D8000809103029091040282179307B1F030938F
:100D9000040220930302E0915202F0915302309733
:100DA00061F00084F185E02D309739F084E089838B
:100DB0003B832A83CE01019609952396E2E00C94A9
:100DC000BB1E90910E01913091F0A6ECB1E0EFEFD7
:100DD00090E02D91821751F0EF3F19F4211101C0DD
:100DE000E92F9F5F9630A9F7EF3FC9F408959091DE
:100DF000910297FFEACFE82FE695E695E695803FCA
:100E0000A8F7F0E0E453FE4F877021E030E001C026
:100E1000220F8A95EAF78281822B828308950E2E13
:100E2000000CFF0BEC53FE4FF8CF90910E01913068
:100E300021F49091910297FD0CC0E6ECF1E09191C4
:100E4000891302C0DF011E9251E0EC3CF507B9F7AF
:100E50000895E82FE695E695E695803FC8F7F0E01F
:100E6000E453FE4F877021E030E0A90102C0440F37
:100E7000551F8A95E2F7CA01809592818923828362
:100E8000089580910D01089588E19AE00FB6F894D5
:100E9000A895809360000FBE90936000FFCFFC0187
:100EA0009B018091F9019091FA018617970740F014
:100EB000672B29F48091E8008E778093E800C901C0
:100EC00040E0009741F4411106C08091E80082FFA4
:100ED0002FC080E0089520912F022115A9F125301F
:100EE000A9F12091E80023FD2DC02091E80022FD0A
:100EF000ECCF2091E80020FFE4CF3091F300209167
:100F0000F200009719F02830310558F041E0283000
:100F1000310509F040E02091E8002E772093E800A9
:100F2000D0CF41914093F10001972F5F3F4FE9CF20
:100F300080912F02811541F0853041F08091E800C9
:100F400083FFC3CF81E0089582E0089583E0089590
:100F50008091F30187FF13C08091E80082FF06C0F3
:100F60008091E8008B778093E800089580912F02AC
:100F70008111F2CF089580912F028115D9F38091CC
:100F8000E80080FFF8CF8091E8008E77ECCF2091C9
:100F9000E4003091E50095E6A9012091EC00822F54
:100FA000817020FF06C08091E80080FF06C080E0CD
:100FB00008952091E80022FD1AC080912F0281152A
:100FC00089F0853089F08091EB0085FD0FC020917C
:100FD000E4003091E50042175307F9F29A95E1F6E3
:100FE00084E0089582E0089583E0089581E0089503
:100FF000E8EDF0E080818E7F80831092E200109215
:10100000DA001092E100A0EEB0E08C9181608C9348
:1010100080818F77808319BCA7EDB0E08C918E7FA3
:101020008C9380818F7E80831092F2010895982F97
:101030009093E900891771F07091EC002091ED0018
:101040005091F00021FD09C09F5F973089F7809390
:10105000E9000895762F242F50E03091EB003E7F79
:101060003093EB003091ED003D7F3093ED003091F7
:10107000EB0031603093EB007093EC002093ED00B7
:101080005093F0002091EE0027FDDECF0895A0E000
:10109000B0E0EDE4F8E00C94991EC8EDD0E0888152
:1010A0008F7E8883E7EDF0E080818160808384E03B
:1010B00082BF81E08093F20188818E7F888302EE77
:1010C00010E0F80110821092DA0081EEC82ED12CC7
:1010D000F601108288818F77888388818068888371
:1010E00088818F7D888319BC10922F021092F101A4
:1010F000109208021092F00190EEE92EF12CF70107
:1011000080818B7F808388818160888342E060E07A
:1011100080E08DDFF60180818E7F8083F801808101
:1011200081608083808188608083F70180818E7FE9
:101130008083888180618883CDB7DEB7E8E00C9436
:10114000B51EE09195029091940227E0E91302C048
:1011500080E00895AE2FB0E02E9FF0011124EA56F2
:10116000FD4F3181361306C03081381303C03581FD
:10117000341304C0FD013196E770E8CF81E0089593
:10118000A1E0B0E0E6ECF8E00C949D1E873010F58D
:101190002091100130911101232BC1F421E030E0A6
:1011A000A90102C0440F551F8A95E2F7CA01809534
:1011B00089830AE010E0AE014F5F5F4F62E180E497
:1011C0000E949C1D90931101809310012196E4E0F0
:1011D0000C94B91E90E0FC01E355FE4F20812111D3
:1011E000F5CFF89481569E4FFC012081E22FE295C5
:1011F000EF70F0E031A12F7081E090E001C0880F26
:101200002A95EAF7932F982B91A392A18095892391
:1012100082A37894DBCFF89481E08093E00080E2B1
:101220008093D800E9ECF0E010828FE19EE4019712
:10123000F1F700C000001DBA109268001CBC10BE7F
:101240001FBA10927A0010926E0010926F001092E6
:101250007100109272001082ECEBF0E0108214B872
:1012600017B81AB81DB810BA108215B818B81BB83C
:101270001EB811BA0C94003F08950F931F93CF939B
:10128000DF938B01EA0190912F02943051F5809306
:10129000E9008FEF9091E80095FD06C095ED9A95D5
:1012A000F1F700008A95B1F78091E80085FF19C039
:1012B0006EDE811111C08091E80085FD06C080912D
:1012C000E8008E778093E800F3CFF80181918F01D9
:1012D0008093F100219779F78091E8008E778093D1
:1012E000E800DF91CF911F910F910895792F60321F
:1012F00029F440E250E0682F83E0BFCF0895A0E2D8
:10130000B0E0E5E8F9E00C949F1E9FEF99838A8393
:1013100060E2CE010196EADFA096E2E00C94BB1EEB
:10132000A0E2B0E0E6E9F9E00C949E1E182F80914F
:10133000D8028115D9F08091D702812B3CD99091A8
:10134000D602981799F08093D6028FE39CE9019713
:10135000F1F700C0000085E089838091D6028A837E
:101360008EEF8B8360E2CE010196C0DF812FA096C5
:10137000E3E00C94BA1ECF93C82F8091D5028C2B3A
:10138000CFDF2CD9C093D702CF910895CF93C8DF78
:10139000C82F24D9C093D502CF91089521E030E021
:1013A00001C0220F8A95EAF78091D502822BEECFF9
:1013B00021E030E0A90102C0440F551F8A95E2F7F1
:1013C000CA0180959091D5028923E0CF9091900237
:1013D0008095892380939002282F277021110CC0BB
:1013E000891751F09091920292FF06C086958695DA
:1013F0008695DEDF109290020895CF93DF93D82F69
:10140000C92F48E050E0682F792F81E036DF88E06F
:10141000ED2FFC2FABEFB1E001900D928A95E1F733
:10142000DF91CF910895BC0140E250E085E025CFE7
:10143000BC0145E050E082E020CFBC0143E050E039
:1014400085E01BCFA2E0B0E0E8E2FAE00C949D1E3C
:1014500080E290E090931101809310018091E90265
:1014600081110EC00E941C1D81E08093E9022FEFC4
:1014700083ED90E3215080409040E1F700C00000F0
:1014800080E09FE39A8389830AE010E022E030E065
:10149000AE014F5F5F4F60E080E40E949C1D9C01A5
:1014A0009093110180931001892B71F422E030E0B8
:1014B000AE014F5F5F4F6CE080E40E949C1D9C0179
:1014C0009093110180931001822F2296E4E00C94F6
:1014D000B91EA1E0B0E0EFE6FAE00C949C1EF82EF5
:1014E00087E0F81638F5809110019091110110E015
:1014F000892B91F419820AE010E021E030E0AE017E
:101500004F5F5F4F63E180E40E94E81D90931101FB
:1015100080931001198110951F73EF2DF0E0E552B3
:10152000FD4F8081811781F1108381E02196E5E0F4
:101530000C94B81E8F2D24DEABEBB1E020E030E040
:1015400010E051E04D91E42FE295EF70E05EF0E0A5
:10155000808190E04F7002C0959587954A95E2F79B
:1015600080FD10C0852F022E01C0880F0A94EAF773
:10157000182B2F5F3F4F2630310521F78F2D0E940A
:101580009102CACF80E0F4CF80E0D0CF9091920258
:1015900092FB222720F9281771F080FB92F9909393
:1015A0009202609191027091920284E090E00E9418
:1015B0000B1F82E00BCF089580910E01813061F501
:1015C0008091910287FF28C08ED88093CD0140E2A0
:1015D00050E062E372E08CEC91E00E941F1F892BC7
:1015E000D1F080E2ECECF1E0A2E3B2E001900D92E8
:1015F0008A95E1F7E0915202F0915302309759F049
:101600000480F581E02D309731F086E08093CC01A5
:101610008CEC91E00995089566D88093C40148E068
:1016200050E064E572E084EC91E00E941F1F892B7A
:1016300091F388E0E4ECF1E0A4E5B2E001900D92D2
:101640008A95E1F7E0915202F0915302309719F335
:101650000280F381E02D3097F1F284EC91E0DACF53
:10166000811531F090918D02892B80938D02A4CF4A
:101670000895811511F05ED89FCF08958091890259
:10168000811541F0809193028D7D8093930294DFC8
:101690001092890208951F921FB61F9211248F93F2
:1016A0009F93AF93BF9380910702811113C08091E4
:1016B0002A0290912B02A0912C02B0912D0241960A
:1016C000A11DB11D80932A0290932B02A0932C029E
:1016D000B0932D02BF91AF919F918F911F901FBE2C
:1016E0001F9018952FB7F89480912A0290912B02A1
:1016F000A0912C02B0912D022FBF0895CF93DF93BC
:10170000EC01F0DF8C1B9D0BDF91CF910895EADF98
:101710002091810230918202232B211521F08093A8
:101720002802909329022091830230918402232B76
:10173000211521F08093260290932702E091520216
:10174000F0915302309741F00680F781E02D3097F9
:1017500019F080E892E009950895611509F441C0F7
:10176000E3E3E80FE33148F4F0E0E25DF04E0C947F
:10177000D91E80DA819580938202C9CF7BDAFBCFB4
:1017800079DA819580938102F8CF74DAFBCF97DA0A
:1017900080938302F2CF93DA8195FACF90DA819524
:1017A00080938402EACF8BDAFBCF815D990B21E035
:1017B00030E001C0220F8A95EAF780918002822BE7
:1017C00080938002DACF80917F02816080937F02D4
:1017D000D4CF80917F028260F9CF80917F028460B4
:1017E000F5CF409181028D3C59F48091820287FFB0
:1017F0000DC010928202411559F410927E0208C069
:101800008E3C81F48091820218169CF3411581F080
:101810008091830290918402892B8111AECF109226
:101820007D02ABCF8F3C41F447FFF0CF1092810295
:10183000809182028115E0CF803D19F41416B4F333
:10184000E5CF90918302893D29F41916FCF6109298
:101850008302DCCF8A3D19F497FFD8CFF8CF90915F
:1018600084028B3D29F497FFD1CF10928402CECF12
:101870008C3D19F41916CCF3C9CF9FE2980F98301C
:1018800090F4815D990B21E030E0B90102C0660F50
:10189000771F8A95E2F7CB0180959091800289238A
:1018A00080938002B3CF8D3D31F480917F028E7F93
:1018B00080937F02ABCF8E3D21F480917F028D7F9C
:1018C000F7CF8F3D09F0A2CF80917F028B7FF0CFC1
:1018D000CF93C82F8115C1F08CEF8C0F813A80F522
:1018E00080910E01813021F48091910287FD0EC01C
:1018F000E6ECF1E08191C817F9F021E0EC3CF20749
:10190000C9F78C2F5EDA58DECF910895EC2FE6955B
:10191000E695E695F0E0E453FE4F828190E04C2F8F
:10192000477021E030E002C0220F331F4A95E2F7F2
:1019300082239323892B29F38C2F77DA3DDEE1CFA5
:1019400080E28C0F883068F4C77081E090E001C0BD
:10195000880FCA95EAF7C0918D02C82BC0938D02FB
:10196000D2CF8BE58C0F833030F42C2F2452330BE5
:10197000C901D7D9C9CFE8E5EC0FEB3148F4F0E065
:10198000EE0FFF1FE759FE4F80819181F2D9BCCF46
:1019900083E38C0F833108F0B7CF61E08C2FDDDE5D
:1019A000B3CF811541F19CEF980F913A10F43DDAD5
:1019B00003CE90E2980F983050F4877091E001C008
:1019C000990F8A95EAF7892F0E949A03F1CF9BE538
:1019D000980F933018F480E090E0A3C998E5980F31
:1019E0009B3118F480E090E0C4C993E3980F9331E1
:1019F00010F460E0B2CE089510928D0280910E0135
:101A0000813011F58091910287FF1EC0EEECF1E06C
:101A10008EE1DF011D928A95E9F780E090E081D99F
:101A200080E090E0A6D910929302C6DD85E0E0E860
:101A3000F2E0DF011D928A95E9F710927E02109282
:101A40007D0210927F0263CEE6ECF1E086E0E1CF0A
:101A5000D3DF2FEF84E39CE0215080409040E1F7FA
:101A600000C0000011DAA0E0B0E0E9E3FDE00C9472
:101A7000991E7C01FC018481811509F4A7C061E0F5
:101A8000C70195D8EC018130FEE79F0709F073C0CC
:101A9000F7018581811589F1809185028F5F8770BB
:101AA000982F853010F090E080E020918502287F0B
:101AB000922B90938502FFEF8F9FC0011124959583
:101AC000879595958795909389008093880090934A
:101AD0008B0080938A0090938D0080938C004091BE
:101AE00085025091860260918702709188028FE092
:101AF00090E00E94031F0E94EE02809189028115EE
:101B000009F4BCC000918D0210918E02EBDD885764
:101B10009C4E90938B0280938A02F70185818115F8
:101B200009F4ACC0102B1D791111D5C0C115F0E519
:101B3000DF0708F07BC0C11520E4D20708F0CFC052
:101B4000C63ED10509F49AC0CE019052811590424B
:101B500008F0CBC0F7018681803108F4B1C0CE0116
:101B60009927109293028D32910509F070C082E09E
:101B700080939302BEC09A9581159F41B0F5EC2FDA
:101B8000ED5CFF0B739708F0B8CFF70185818115E5
:101B900011F180918D028D2B80938D020DDD8FE3ED
:101BA0009FE10197F1F700C000008C2F91DE80913A
:101BB00090028770811551F0F7018581811531F010
:101BC0008091920282FF02C082E000DCCDB7DEB7D6
:101BD000E8E00C94B51EEFE3FFE13197F1F700C0A8
:101BE00000008D2F0E949A0388CFC337FCE7DF07E0
:101BF00009F083CFF70185818115C9F280918902AF
:101C0000811511F03BDDD3CF10928D0280918E02B1
:101C1000811110928E0266DD88579C4E90938B0244
:101C200080938A0281E080938902C1CFC43BF2E5B0
:101C3000DF0721F108F03FC0C03432E5D307C0F41C
:101C4000C11582E5D807D0F410929302CE018E32EE
:101C5000910508F050C08832910508F048C08E31D7
:101C6000910508F046C004974A9708F480CF33C026
:101C7000CE01805692458034910530F7F701858179
:101C8000811509F46CC39E0130572332310508F0E9
:101C900074C384E090E00E94EC1E909392028093C3
:101CA0009102FE01E150F047E232F10550F5EF5BA1
:101CB000F04E0C94D91ECE01805C92458097DDCF0A
:101CC0008D2F8F718431D1F240F48D2F8F7082303F
:101CD00011F410929302D2DCD1CF8631F9CFF70103
:101CE0008681803108F03BCFC9CFCE013ACF8A97A9
:101CF00091F762DCC3CF8C349105D9F38D329240D9
:101D0000F7CF80919102816080939102609191025E
:101D10007091920284E090E00E940B1F6DDE47CF2D
:101D200080919202886080939202F0CF809191021C
:101D30008260EACF809191028460E6CF8091910227
:101D40008860E2CF809192028160EDCF8091920213
:101D50008260E9CF809191028061D6CF809191021B
:101D60008062D2CF809191028064CECF45DE809197
:101D700091028068C9CF809191028C60C5CF80911B
:101D800092028360D0CF809191028E7FBDCF8091EF
:101D90009202877FC8CF809191028D7FB5CF8091CD
:101DA00091028B7FB1CF80919102877FADCF8091DF
:101DB00092028E7FB8CF809192028D7FB4CF8091B6
:101DC00091028F7EA1CF809191028F7D9DCF8091D6
:101DD00091028F7B99CF10DE809191028F7794CF03
:101DE00080919102837F90CF809192028C7F9BCFD4
:101DF00080919102992782FF939590FB82F990FB45
:101E000083F982CF80919202982F909590FB80F970
:101E100090FB81F988CF90919102892F8F7B96FF5B
:101E2000806472CFE9DD90919102892F97FB87F949
:101E300080586ACF61E08EE090E00E94F11E66CF8C
:101E400060E0F9CF90919102892F8F7E94FF80619D
:101E50005BCF90919102892F8E7F90FF816054CF4C
:101E600090919202892F877F93FF88605CCF89E2EF
:101E700096C289E27FC29E01205E32452032310542
:101E8000A0F4811129C0CF7181E090E09C0102C0D3
:101E9000220F331FCA95E2F7E901622F83E090E039
:101EA0000E94F11E8C2F67DA82CE8115A9F0CA3507
:101EB0003CE7D30709F47FC008F05AC0C1309CE763
:101EC000D90709F477C0C330ECE7DE0709F46CC02A
:101ED000C115DC4709F45CC0F701858100811181DF
:101EE000811509F46CC0C8010E94AE05C82F682F87
:101EF000C8010E94FF02B8018C2F0E94A2030E9419
:101F0000B304D82FC92FF701D580C680C2948FE0C3
:101F1000C8228091900287708115F1F00D2DD114A7
:101F2000E1F0892F807F803461F080E28D0F88306E
:101F300098F0892F807E803221F4D23068F0C1146D
:101F400059F08091920282FF07C082E03FDA8091CF
:101F50009002877001E0811100E0EC2FE295EF70B4
:101F6000C03C08F08CC0F0E0ED59F04E0C94D91E46
:101F7000CB352CE7D20709F180919202002482FF31
:101F80000394802DCC35DC4709F0A6CFFFDAA4CF2F
:101F900033DD8FEF94E3ECE081509040E040E1F7D7
:101FA00000C0000038D903CE6FEF7FEF80E090E0F3
:101FB0000E940B1F4DDD81E0E9CF80E0E7CFC80133
:101FC0000E943503C82F97CF1C2F1F70C03110F00F
:101FD0001295107FD114B1F0111561F080E28D0FD0
:101FE000883010F0D11108C080918D02812B809330
:101FF0008D02E2DA8D2F3DC080919302812B809378
:102000009302F7CF8D2FCDDC1115C9F180E28D0F32
:10201000883010F0D11104C0812F0E949A0306C0AD
:10202000109580919302812380939302C5DA27C093
:102030001C2F1F70C07FC03211F01295107FD11578
:1020400049F0D13009F460C0D11409F469C0C11459
:1020500081F1D0CF8091920282FD27C0D11459F036
:10206000111531F080918D02812B80938D02A4DABD
:1020700080E02EDC04C080E094DC1111CDCF01158E
:1020800009F4ADC08091900280FDA9C0F7011582CE
:1020900086958695869582D9C701E5DC8091900268
:1020A00086958695869584D99AC0D11491F0C110F1
:1020B00003C0812FD5DAE3CFF1E0CF12E0CF8091DA
:1020C0008E02912F98231917D1F2812B80938E02C3
:1020D000D6CFC110D4CF812FCCDA90918E02812F30
:1020E0008923811529F0812F8095892380938E0281
:1020F00080918F02912F9823911509F4C0CF1095EC
:10210000182310938F02BBCFD11429F022E0C216FE
:1021100008F0B5CFCECFC110B2CF812FAADAAFCFA2
:10212000C114D9F3D93349F43FEF87EE93E031502E
:1021300080409040E1F700C000008D2F32DC9FCF3F
:102140008C2F869586958370811569F0813009F012
:1021500096CF8D2F9C2F9370D11002C080E090E01D
:102160000E94B9068CCF8D2F9C2F9370D11002C086
:1021700080E090E00E94910682CF6D2D8D2FEDDAE8
:102180007ECF8C2F8370811137C0D11026C04D2F88
:10219000429546954770440F440F8D2F8F70042E43
:1021A00001C0880F0A94EAF72D2F2071D4FF07C0D1
:1021B0002FE030E001C0220F4A95EAF72095C6953E
:1021C000C695C370C23099F0C33079F03091D70210
:1021D000C13051F0822B8323CED80E94820660E06A
:1021E000C7010E94D705F2CC832B822BF5CF822B1F
:1021F0009091D7028927F0CFD11449F1C0FFEDCFDC
:102200004D2F429546954770440F440F8D2F8F7088
:10221000042E01C0880F0A94EAF72D2F2071D4FFF5
:1022200007C02FE030E001C0220F4A95EAF7209561
:10223000C695C695C370C23081F0C33061F030914D
:10224000D502C13039F0822B8323A0D8C6CF82308B
:1022500020F2D6CF832B822BF8CF822B9091D50200
:102260008927F3CFCF70D11429F08C2F97D88D2FD9
:10227000F7D9B3CF8D2FFDD98C2F9AD8AECFD23FBF
:1022800081F168F4D03FC1F0D13F89F0D11409F455
:1022900053C0C11409F44DC08D2F1ADB9ECFD33F1C
:1022A00031F1D43F99F79091920292FD2BC08C2F7F
:1022B0008F71D11411F319C0D11471F0C1108DCFE9
:1022C000CF7181E090E0FC0101C0EE0FCA95EAF702
:1022D0008091D5028E27B9CFF2E0CF1608F07DCFDE
:1022E000EFCF8C2F8F71D110C8CF58D876CF80E028
:1022F000D11409F4AACFCF7181E001C0880FCA952B
:10230000EAF7A3CFD11461F08C2F8F7192FFEDCF3C
:10231000982F990F990F990F936090939002E5CFA2
:1023200081E054D822E0C21608F457CF82E04ED89C
:1023300054CF8C2F8F71D9CFC11471F0D93349F498
:102340003FEF87EE93E0315080409040E1F700C0CE
:1023500000008D2F26DB41CF8C2F8F718ECFC631A1
:10236000FCE7DF0709F087CD80918C02811509F425
:1023700080CD85E30E94150714C0C6312CE7D20733
:1023800009F079CD80918D028A7A91E0811101C0A6
:1023900090E090938C02811509F469CD85E30E9449
:1023A000E1060AD904CC8091D402803178F480917E
:1023B000D302811559F0E091950220919402309159
:1023C000CF024091CE0257E02E1301C008956E2F28
:1023D00070E05E9FF0011124DF01AA56BD4F1496F4
:1023E0008C911497811551F111968C91119783134B
:1023F00025C08C91841322C015968C91159781115C
:102400001DC012968D919C91A091D002B091D102E5
:102410008A1B9B0B883C910588F48091D4028F70B5
:1024200080618093D402E456FD4F80818F7080617B
:1024300080838EEC92E017DB0C946903FB013196EC
:10244000E770C2CFADE0B0E0E8E2F2E10C94941E98
:102450008C0186E0F801DE01189601900D928A95B4
:10246000E1F7F801F580C4808EEC882E82E0982E8A
:102470007090D20271101FC0C114D1F0F11409F490
:1024800015C1C8010E94FF05811509F40FC187E03D
:10249000F801D40101900D928A95E1F7F1E0CF1295
:1024A00006C08091CE029091CF020E94F3057BDF9F
:1024B000FF24F39453C0E080A280B380D090D30275
:1024C0008091D0029091D1029501281B390BD11433
:1024D00009F4B5C0283C310508F08DC0C11441F3A2
:1024E0009091CF02C1808091D402803108F056C013
:1024F000C91213C09091CE029E110FC0F11048C0B6
:102500008F7080618093D4028EEC92E0ACDA80917F
:10251000D402F8018683F12C21C0F11039C040E0CB
:102520006C2D8E2D0E94A10840E06C2D8E2D0E94F6
:10253000A108F82E8111EFCF888599850E94F305B7
:10254000292F22952F70903470F49F70223098F0CC
:102550009115A9F0F8019681903188F48F2D2D9670
:10256000EDE00C94B01E2A5F2F70223060F0C8019D
:102570007ADAFD2CF3CF911511F0811579F3805E95
:10258000883060F3F4CF803F48F3815F8330F9CF28
:102590008091D40281608093D402BDCFC91207C05C
:1025A0009091CE029E1103C0F11409F469C0C801D4
:1025B0000E94FF05811509F479C0F11409F476C071
:1025C0008091D402803270F02091CE023091CF02FF
:1025D0003A832983BC82AB827D821E828F83CE01A7
:1025E000019641DA87E0F801AEECB2E001900D927D
:1025F0008A95E1F75CCF8091D402803148F48EEC6B
:1026000092E031DA87E0F40111928A95E9F783CFFD
:10261000C11409F44DCF2091CF0291812913C7CF66
:102620009091CE029E11C3CFF110C1CF8683C80115
:102630001ADA87E0F40111928A95E9F739CF283C3C
:10264000310500F7C11409F433CFF11479F19091F9
:10265000CF028181981320C08091CE028E111CC0C0
:102660008091D40280FD0FC0803168F08683807F26
:10267000803F39F08681982F907F905F8F70892BF3
:102680008683C801F0D987E0F801AEECB2E0019092
:102690000D928A95E1F70CCFC8010E94FF058111C8
:1026A000A1CF8091D40281608093D402C801DBD98C
:1026B000FFCEA4E3B0E0EFE5F3E10C94991E4FA741
:1026C00058AB69AB7AAB8BAB192F9CAB91111092C5
:1026D00093021EA686E0FE01BF96DE019896019049
:1026E0000D928A95E1F70BA9011501F1CFA4D8A8A5
:1026F0000CA71DA77E0188E2E80EF11C61E0C7016E
:102700000E94D7058091D802811561F087E0811B76
:102710008983CA82DB828EEF8C8360E2CE010196D0
:102720000E94760961E0C7010E94D7050CA71DA78A
:1027300087E0FE01B896DE01919601900D928A9590
:10274000E1F7CE0181967EDE811128C020919402AE
:102750003091950287E0FE01B196DE01119601905D
:102760000D928A95E1F78DA18115C1F0822F90E03D
:102770000196877099273817190691F097E0929F74
:10278000D0011124AA56BD4FFE01319601900D9241
:102790009A95E1F7809394020E94690317E01DC0A7
:1027A0002BD9109294021092950287E0EEECF2E0A1
:1027B000DF011D928A95E9F7F1CF189FC00111241E
:1027C0008A569D4F3FDE811571F08091950290E011
:1027D0000196877099278093950280919502909138
:1027E00094028913EACFE496E8E00C94B51EA6E0C3
:1027F000B0E0EDEFF3E10C949D1E0E94720B8C0192
:1028000080913002909131028017910771F0198206
:102810001A820E94720BBC0149815A8180E090E0CB
:1028200048DF10933102009330022696E4E00C94C6
:10283000B91EAAE2B0E0EFE1F4E10C949E1E83EF32
:1028400091E0FC0101962091F100208321E08B3F73
:102850009207B9F78091F401893009F459C0C8F49E
:10286000823009F4B7C0833009F486C0813089F121
:102870008091E80083FFEBC08091F3019091F40117
:102880009A3008F0E4C0E92FF0E0E159F04E0C94E2
:10289000D91E8A3009F48DC08B3051F78091F30135
:1028A000813231F78091F7019091F801892B01F77E
:1028B0008091E800877F8093E8000E94A80781E06C
:1028C0009091F501911101C080E080930E0194D8A0
:1028D000CFCF8091F301813A59F68091E800877F4C
:1028E0008093E8008091F7019091F801892B61F0C5
:1028F00060E080E090E070E00E944F078091E80087
:102900008B778093E800B4CF68E08BEF91E0F3CF52
:102910008091F301813209F0ABCF8091F701909162
:10292000F801009719F0039709F0A2CF8091E80011
:10293000877F8093E8008091E80082FF18C0909123
:10294000F3008091F200029731F48091F100813020
:1029500011F0863021F48091F10080930D01809177
:10296000E8008B778093E8000E94A80781CF8091D0
:102970002F028111E0CF7CCF8091F301813A09F0E1
:1029800077CF8091F7019091F801892B09F070CFF2
:102990008091E800877F8093E8008091E80080FFC5
:1029A000FCCF80910E018093F1008091E8008E773A
:1029B000D9CF8091F301813209F05ACF8091E8009C
:1029C000877F8093E8000E94A8078091F60180939A
:1029D0000C014ECF8091F301813A09F049CF8091EB
:1029E000E800877F8093E8008091E80080FFFCCFBB
:1029F00080910C01D8CF803889F0823841F58091E0
:102A0000F7018F70873018F58093E9008091EB0013
:102A100085FB882780F91092E90006C080910802A2
:102A2000880F9091F001892B9091E800977F909307
:102A3000E8008093F1001092F1008091E8008E7719
:102A400023C0811116C08091F501813011F1809170
:102A5000E80083FF0AC08091E800877F8093E80048
:102A60008091EB0080628093EB00AA96E3E00C94E7
:102A7000BA1E823061F78091F501811589F01092BC
:102A8000E9008091E800877F8093E8000E94A80712
:102A9000DECF81E0933009F080E080930802EFCF31
:102AA0008091F7018F702FEF280F263080F68093EA
:102AB000E9002091EB0020FFE2CF933031F48091C8
:102AC000EB0080628093EB00DACF9091EB00906195
:102AD0009093EB0021E030E0A90102C0440F551FA4
:102AE0008A95E2F74093EA001092EA008091EB00A9
:102AF0008860E8CF8111ABCF1091F5011F778091ED
:102B0000E3008078812B8093E3008091E800877F49
:102B10008093E8000E94A8078091E80080FFFCCF26
:102B20008091E30080688093E30083E0111101C08D
:102B300082E080932F028BCF8058823008F087CFBD
:102B40008091F5019091F6018C3D53E0950799F540
:102B500083E08A838AE289834FB7F894DE01139673
:102B600020E03EE051E2E32FF0E0509357008491E3
:102B700020FF03C082958F703F5F8F708A30C8F04E
:102B8000895C90E08D939D932F5F243161F74FBF57
:102B90008091E800877F8093E8006AE270E0CE01D0
:102BA00001960E944F078091E8008B778093E800A0
:102BB0004ECF805DE6CF292F33272330310509F42E
:102BC0004EC078F52130310509F488C084E790E0E3
:102BD000E6ECF1E02230310509F039CF2091E80030
:102BE000277F2093E8002091F9013091FA018217A4
:102BF000930708F49C0140E02115310509F073C0EA
:102C0000411171C08091E80082FDCDCF80912F02EB
:102C1000811549F2853039F28091E80083FFF2CFC7
:102C2000C2CF8091F7019091F8012132310509F46A
:102C300046C02232310509F00ACF8430910508F0F0
:102C400006CFFC01EE0FFF1FED5DFE4F0190F081FE
:102C5000E02D815E9E4FDC018C9190E010C09C01C4
:102C60003327823021F12330310568F4232BB9F466
:102C7000EAEAF2E0E4918E2F90E0EAEAF2E00097CF
:102C800009F4E5CEABCF2330310509F0E0CEECE41A
:102C9000F2E0E4918E2F90E0ECE4F2E0F0CFE0E897
:102CA000F2E0E4918E2F90E0E0E8F2E0E8CFE8E691
:102CB000F2E0E4918E2F90E0E8E6F2E0E0CF84309D
:102CC000910508F0C4CEFC01EE0FFF1FE55DFE4F3D
:102CD0000190F081E02D89E090E080CF82E190E0EA
:102CE000EAE3F2E07BCF80912F02811509F45BCFFC
:102CF000853009F458CF8091E80083FD54CF80914E
:102D0000E80082FD7FCF8091E80080FF75CF909131
:102D1000F3008091F2002115310519F088309105FA
:102D200050F041E0089709F040E08091E8008E778C
:102D30008093E80061CF44914093F1003196215097
:102D400031090196E8CF803809F081CE8091E80002
:102D5000877F8093E8008091F1018093F1006DCE30
:102D6000811175CE1091F501123008F070CE80916E
:102D7000E800877F8093E8001093F1010E94A80784
:102D8000111521F184E080932F0242E061EC81E093
:102D90000E94170842E161EC82E00E94170842E2BB
:102DA00061EC85E00E94170842E261EC83E00E943A
:102DB000170842E260EC84E00E94170880912F021D
:102DC000843051F482E080930F0141CE8091E30082
:102DD00087FDD8CF81E0D7CF81E0F5CF0F931F9348
:102DE000CF93DF938091100190911101892B41F5D0
:102DF00010E0C0E007E00C0F8C2F0E94C008802F6D
:102E00000E94C0088C2F0E94690AD82F802F0E9430
:102E1000690AD82B1D2B0E94B202CF5FC73051F731
:102E2000111549F181E08093EE010E94720B90939D
:102E3000ED018093EC01DF91CF911F910F910895E7
:102E40008091EF018F5F8093EF018111D1CF0E94BC
:102E5000220A90E09093110180931001892B41F692
:102E60002FEF83EC99E0215080409040E1F700C0C3
:102E700000000E9444078091EE018115E1F2C091AB
:102E8000EC01D091ED010E94720B8C1B9D0B4497BD
:102E900090F24EE050E06BED72E089E092E0CFD727
:102EA000892B49F08EE0EBEDF2E0A9E0B2E0019071
:102EB0000D928A95E1F71092EE01BDCFCDB7DEB746
:102EC000C356D1090FB6F894DEBF0FBECDBF85B78C
:102ED000806885BF85B7806885BF84B7877F84BFDA
:102EE0000FB6F894A8958091600088618093600087
:102EF000109260000FBE80E890E00FB6F8948093C7
:102F00006100909361000FBE81E080930F018AE21F
:102F100096E09093C3018093C2010E94F8070E943B
:102F200047088091E20084608093E2007894809169
:102F30002F02811591F08091E9001091EC008F70C3
:102F4000179511271795182B1092E9008091E8002A
:102F500083FD6FDC1F701093E90082E084BD93E075
:102F600095BD9AEF97BD80936E000E94220A90E073
:102F700090931101809310010E94B2020E9471028D
:102F80008EE0EBEDF2E0DF01282F1D922A95E9F7A4
:102F9000E9E0F2E0DF011D928A95E9F780E090E038
:102FA0001BD7833E9E4F69F163EE7EEF80E090E099
:102FB00032D760E082E090E014D781E08093D702BE
:102FC00061E083E090E00DD760E074E184E090E0A0
:102FD00022D71092850210928602109287021092D8
:102FE000880284E08093850244E050E060E070E075
:102FF0008FE090E008D740E050E0BA0183E190E034
:1030000002D782E090E0DBD68093170284E090E064
:10301000E3D69093920280939102E0DEEFEFF3EF1C
:1030200021E0E150F0402040E1F700C00000D6DE92
:103030008091090280FF07C06FEF7FEF80E090E092
:10304000EAD60E940B0983E090E0B9D60E94BB0942
:103050000E94EE0289EA8093800089E080938100DB
:1030600024982C983F98479A54985C9A55985D9A62
:103070006E98769A569A8FE090E0A9D66093850272
:1030800070938602809387029093880267701FEF87
:10309000169FB001112475956795759567957727EB
:1030A000709389006093880070938B0060938A000E
:1030B00070938D0060938C005E980E94CF020E94F6
:1030C000D3020E94D7028FEF90E090938900809303
:1030D000880090938B0080938A0090938D0080935A
:1030E0008C000E94C6028FEF90E7A2E081509040D2
:1030F000A040E1F700C000000E94C902BFEFE0E776
:10310000F2E0B150E040F040E1F700C000000E9462
:10311000CC022FEF80E792E0215080409040E1F711
:1031200000C000000E94CF02AFEFB0E7E2E0A15084
:10313000B040E040E1F700C000000E94D302FFEF82
:1031400020E782E0F15020408040E1F700C000001D
:103150000E94D702809185028770189FC0011124B8
:103160009595879595958795992790938900809354
:10317000880090938B0080938A0090938D008093B9
:103180008C005E980E94CF020E94D3020E94D70258
:1031900080E091E0909353028093520248E1C42E64
:1031A000D12C59E0252E52E0352E67E1A62E62E0A3
:1031B000B62E7E0191E4E90EF11CA396EFAEA39723
:1031C000A496FFAEA49780912F0210E400E192E153
:1031D000992E853009F492C001DE08E112E089E001
:1031E000882E82E0982ED401F80191918D9122E0F1
:1031F000E632F20709F48CC09817B9F3712CD401A8
:103200006D904D01F80181918F01861549F1862558
:10321000A2968FAFA297512C44244394A2968FADCF
:10322000A29784218115A9F059827A820E94720B9B
:103230009C838B83F1E0FD8391E0862D84218111B5
:1032400001C090E09E8349815A816B817C818D8190
:1032500030DA5394440C26E05212E0CFF801629227
:1032600073948EE07812CBCF8FB7F89440912A02F6
:1032700050912B0260912C0270912D028FBF4BC098
:1032800080912F02843009F1109207020FB6F89452
:10329000A895C09260000FBE1093600083B7817F35
:1032A000846083BF83B7816083BF7894889583B738
:1032B0008E7F83BF0FB6F894A895809160008861D7
:1032C00080936000109260000FBE0E94220A90E07E
:1032D00090931101809310010E94B2020E9471022A
:1032E000D101EEE01D92EA95E9F778DDE9E0F2E040
:1032F00081918111DBC1AE16BF06D1F780912F02FB
:10330000853009F4BDCF0E94FC0C0E94820664CF78
:10331000981374CF6CDA80918902811569F00E944C
:10332000720B20918A0230918B02821B930B8F3F8C
:103330009F4710F40E943E0B509080020091810242
:103340007090820260908302109184021092810238
:10335000109282021092830210928402802F872999
:10336000811509F441C080902802909029020E94A2
:10337000720B9C012819390990917E02911509F46C
:1033800091C12531310580F19F3F19F09F5F9093E6
:103390007E02011559F00E943A0691E010160CF0D9
:1033A0009FEF899F802D112480938102711459F021
:1033B0000E943A0691E017140CF09FEF899F802D30
:1033C00011248093820280918102811569F090908E
:1033D0008202911449F00E942C0680938102892D6B
:1033E0000E942C0680938202812F8629811509F480
:1033F00041C080902602909027020E94720B9C018F
:103400002819390990917D02911509F446C1253199
:10341000310580F19F3F19F09F5F90937D02611409
:1034200059F00E945F0691E016140CF09FEF899FFF
:10343000802D112480938302111559F00E945F069C
:1034400091E011160CF09FEF899F802D112480933D
:10345000840280918302811569F090908402911416
:1034600049F00E942C0680938302892D0E942C062D
:103470008093840280918002851119C0809181021D
:10348000811511F0801313C020918202211511F0D3
:1034900027110DC090918402911511F0191307C0E6
:1034A00030918302311103C0822B892B81110E943C
:1034B000870B509280020093810270928202609288
:1034C0008302109384020E94820690912E02891733
:1034D00069F080932E028FB7F89440912A025091A0
:1034E0002B0260912C0270912D028FBF80912F02D0
:1034F000843009F068CE8093E9008091E80082FF73
:1035000062CE8091E80090E085FF05C00E94C70769
:103510008115B9F091E08091E8008B778093E80005
:10352000911509F450CED701EC91A396AFADA397B6
:10353000A496BFADA497EB3008F5F0E0E758F04E45
:1035400038C400E210E04E01B1E48B0E911C809172
:10355000E80085FD0AC08091E8008B778093E80041
:103560000E94C707811599F3D5CF8091F100F4012E
:1035700081934F010150104051F7CCCFEE3FA1F0A5
:103580008FEF48C019828CE0E2E1F1E0DE01129693
:1035900001900D928A95E1F78EEF8E8760E2CE0161
:1035A00001960E9476090FCEE98384E08A83EB833B
:1035B000F5CF81E08093D80284E089A31EEF1AA39F
:1035C00060E2CE0181960E9476099091D5028091A9
:1035D000D702892B0E94DB0295E099838A831B83A3
:1035E000DDCF8091D802811509F4EDCD12968C9132
:1035F000129711969C91911103C00E94D809E3CDB6
:1036000091E001C0990F8A95EAF7892F0E94C609B7
:10361000DACD84E00E947F09D6CD81E08093DA0282
:1036200011968C911197813071F08230B1F0811137
:103630001EC012968C91811519F00E94C602C3CD4E
:103640000E94CF02C0CD12968C91811519F00E9474
:10365000C902B9CD0E94D302B6CD12968C918115C4
:1036600019F00E94CC02AFCD0E94D702ACCD85E00C
:10367000D1CF11968C9111E0811101C010E010930F
:10368000DA02811106C00E94CF020E94D3020E947A
:10369000D7028BE089831A8381CF2139314008F02A
:1036A000BBCEE8CE232B09F071CE9ECE80910802CE
:1036B000811509F423CE09BD99BC09B400FEFDCFE4
:1036C0008091D8008F7D8093D8008091E000826047
:1036D0008093E0008091E00081FDFCCF0E94FC0C13
:1036E0000DCE78941F921FB61F9211248F939F9333
:1036F000AF93BF9380912A0290912B02A0912C024C
:10370000B0912D020196A11DB11D80932A029093C4
:103710002B02A0932C02B0932D02BF91AF919F91E9
:103720008F911F901FBE1F9018951F920F920FB67A
:103730000F9211242F933F934F935F936F937F9337
:103740008F939F93AF93BF93EF93FF938091E1008B
:1037500082FF09C08091E20082FF05C08091E100F4
:103760008B7F8093E1008091DA0080FF24C08091FC
:10377000D80080FF20C08091DA008E7F8093DA002D
:103780008091D90080FFA9C080E189BD82E189BD17
:1037900009B400FEFDCF81E080932F028091F201F9
:1037A000811109C00E94F8070E9447088091E20039
:1037B00084608093E2008091E10080FF1AC08091D4
:1037C000E20080FF16C08091E2008E7F8093E200CD
:1037D0008091E20080618093E2008091D800806255
:1037E0008093D80019BC85E080932F0283E08093FA
:1037F0000F018091E10084FF2FC08091E20084FFDF
:103800002BC080E189BD82E189BD09B400FEFDCFF6
:103810008091D8008F7D8093D8008091E1008F7EC9
:103820008093E1008091E2008F7E8093E20080919E
:10383000E20081608093E2008091F101811509F43A
:1038400052C084E080932F0280912F02843009F0CF
:1038500052C082E080930F018091E10083FF2CC071
:103860008091E20083FF28C08091E100877F8093F0
:10387000E10082E080932F021092F1018091E1003B
:103880008E7F8093E1008091E2008E7F8093E20042
:103890008091E20080618093E20042E060E080E09D
:1038A0000E9417088091F00088608093F00081E00A
:1038B00080930F0180930E01FF91EF91BF91AF9123
:1038C0009F918F917F916F915F914F913F912F9138
:1038D0000F900FBE0F901F90189519BC10922F02D9
:1038E0001092F20168CF8091E30087FF02C083E06D
:1038F000A9CF81E0A7CF81E0ADCF1F920F920FB685
:103900000F921124EF92FF920F931F932F933F93E7
:103910004F935F936F937F938F939F93AF93BF93D7
:10392000CF93EF93FF9309EE10E0F8018081C091EF
:10393000EC008F70C795CC27C795C82B108280EFFD
:10394000E82EF12CF7018081877F808378940E9494
:103950001914F8011082F701808188608083CF708C
:10396000F801C083FF91EF91CF91BF91AF919F91EB
:103970008F917F916F915F914F913F912F911F9107
:103980000F91FF90EF900F900FBE0F901F90189522
:10399000FF920F931F93CF93DF93182FEB01109299
:1039A000BC0084EA8093BC000E94720B082FF92EA1
:1039B0008091BC0087FF28C08091B900887F883043
:1039C00029F08091B900887F803199F51093BB0070
:1039D00084E88093BC000E94720B182F092F8091FD
:1039E000BC0087FF1EC02091B900287F80E090E0D6
:1039F000283199F081E090E0203411F480E090E0EB
:103A000091958195910909C0802F9F2D0E947E0B71
:103A1000C817D90768F68EEF9FEFCDB7DEB7E5E0A0
:103A2000A7C1812F902F0E947E0BC817D907B8F627
:103A3000F2CF8FEF9FEFF1CF1092B9008CE080931F
:103A4000B80008950F931F93CF93DF93EB018093FA
:103A5000BB0084E88093BC000E94720B182F092FD2
:103A60008091BC0087FF11C02091B900287F81E0C0
:103A700090E0283211F480E090E0919581959109D1
:103A8000DF91CF911F910F910895CF3FDC0741F354
:103A9000812F902F0E947E0BC817D90708F78EEF51
:103AA0009FEFEECF0F931F93CF93DF93EC0184EC46
:103AB0008093BC000E94720B182F092F8091BC00CC
:103AC00087FF08C08091BB0090E0DF91CF911F91EC
:103AD0000F910895CF3FDC0789F3812F902F0E942B
:103AE0007E0BC817D90750F78EEF9FEFEECF0F93DD
:103AF0001F93CF93DF93EC0184E88093BC000E9476
:103B0000720B182F092F8091BC0087FF08C080918D
:103B1000BB0090E0DF91CF911F910F910895CF3FAF
:103B2000DC0789F3812F902F0E947E0BC817D907DD
:103B300050F78EEF9FEFEECFA0E0B0E0E1EAFDE1BD
:103B4000F2C0682E962E5A01690178010E94720B0C
:103B5000782E892E0431110518F10F3F100719F145
:103B6000C80164E170E0C7D0162F072F612F702FB6
:103B7000862D0EDFEC01892BC1F0FFEFEF16FF065B
:103B8000A9F3872D982D0E947E0BE816F90670F791
:103B900084E98093BC00CE01CDB7DEB7EEE0DFC094
:103BA00011E000E0E3CF15E0FCCFB701892D4ADF3B
:103BB000EC018501CA0CDB1C0C151D0549F320978F
:103BC00039F7B701F80181918F013CDFEC01F4CFA7
:103BD000A0E0B0E0EDEEFDE1A6C0982E862E6A01D1
:103BE000590178010E94720B3C010431110538F132
:103BF0000F3F100739F1C80164E170E07CD0162F47
:103C0000072F612F702F892DC3DEEC01892BE1F086
:103C1000FFEFEF16FF06A9F3C3010E947E0BE81623
:103C2000F90678F784E98093BC00CE011C161D06C6
:103C300014F480E090E0CDB7DEB7EEE090C011E084
:103C400000E0DFCF15E0FCCFB701882DFBDEEC01F3
:103C5000892B41F7689490F80E94720B782E892E78
:103C600084E1E816F10438F1EFEFEE16FE0631F1CB
:103C7000C70164E170E03FD0162F072F612F702F2E
:103C8000892D86DEEC01892BD9F400E010E0F1E00B
:103C9000AF1AB1080A151B05F8F4D7FDC3CFC70149
:103CA00001DFEC0197FD04C0F601E00FF11F8083F6
:103CB0000F5F1F4FEFCF11E000E0E0CF15E0FCCF2A
:103CC0008FEFE816F806D1F2872D982D0E947E0B13
:103CD000E816F90698F6D9CFD7FDA4CFC70107DFBC
:103CE000EC0197FD05C0CA0CDB1CF60180839ACF5E
:103CF000CEEFDFEF97CFAA1BBB1B51E107C0AA1F76
:103D0000BB1FA617B70710F0A61BB70B881F991F7C
:103D10005A95A9F780959095BC01CD0108952F92F1
:103D20003F924F925F926F927F928F929F92AF924B
:103D3000BF92CF92DF92EF92FF920F931F93CF9398
:103D4000DF93CDB7DEB7CA1BDB0B0FB6F894DEBF2F
:103D50000FBECDBF09942A88398848885F846E8455
:103D60007D848C849B84AA84B984C884DF80EE809F
:103D7000FD800C811B81AA81B981CE0FD11D0FB6A8
:103D8000F894DEBF0FBECDBFED01089597FB072E5F
:103D900016F4009406D077FD08D0ADDF07FC05D0FF
:103DA0003EF4909581959F4F0895709561957F4F52
:103DB0000895EE0FFF1F0590F491E02D0994F999F5
:103DC000FECF92BD81BDF89A992780B50895A6E1EE
:103DD000B0E044E050E025C0A8E1B0E042E050E0AF
:103DE00020C0262FF999FECF92BD81BDF89A019788
:103DF00000B4021639F01FBA20BD0FB6F894FA9A33
:103E0000F99A0FBE08950396272FECDFEADF252FDE
:103E1000E9DF242FE7CF0196272FE4DFE2CFDC0193
:103E2000CB01FC01F999FECF06C0F2BDE1BDF89AC5
:103E3000319600B40D9241505040B8F70895FB01FF
:103E4000DC0104C08D910190801921F44150504053
:103E5000C8F7881B990B0895F894FFCFB90BBE0BD8
:103E6000C00BC50BD50BD50BD50BD50BD50BD50B77
:103E7000D50BD50BC70BCB0BCE0BD30BE30BE90B41
:103E8000ED0BC30E290FCB0E960E9A0ECF0E9E0E83
:103E9000D30EDF0EAA0E220FAE0EE30EB20EE70E09
:103EA0000B0FB60EEB0E120FBB0EF00EF80EA20E9D
:103EB000D70EA60EDB0EBF0EF40E020F1A0F200F48
:103EC000900EC70E300FE40FE40F18101810A0105A
:103ED000BD103F103F10C11032113F113F11FB14B4
:103EE00021152715211527157A159C152715A316B9
:103EF000B016C21AD91AE318C01AF11A091B091B05
:083F00000D1B091B091B391BF5
:103F08004107FD09130A180A1D0A76090000010075
:103F1800200058336F67502F6C6271334547004457
:103F280022476D820160011901AC00D801F101112D
:103F3800022A02E200E900EA00B500B600B700CDA7
:103F4800008301CC008A01920194012102230224FA
:103F5800022502260227022A02B300B4006F00706D
:103F6800009F01CB019F02A002E200E900EA00B530
:103F780000B600B700CD008301CC008A01920194FD
:103F8800012102230224022502260227022A02B363
:103F980000B4006F0070009F01CB019F02A00200D7
:103FA80000000000000030313233929366010101B5
:103FB8000101010100000000000000F0F1F4F5F635
:023FC800F70000
:00000001FF
